{
  "_format": "hh-sol-artifact-1",
  "contractName": "MusicNFT",
  "sourceName": "contracts/MusicNFT.sol",
  "abi": [
    {
      "inputs": [
        {
          "internalType": "address",
          "name": "_usdcToken",
          "type": "address"
        }
      ],
      "stateMutability": "nonpayable",
      "type": "constructor"
    },
    {
      "anonymous": false,
      "inputs": [
        {
          "indexed": true,
          "internalType": "address",
          "name": "owner",
          "type": "address"
        },
        {
          "indexed": true,
          "internalType": "address",
          "name": "approved",
          "type": "address"
        },
        {
          "indexed": true,
          "internalType": "uint256",
          "name": "tokenId",
          "type": "uint256"
        }
      ],
      "name": "Approval",
      "type": "event"
    },
    {
      "anonymous": false,
      "inputs": [
        {
          "indexed": true,
          "internalType": "address",
          "name": "owner",
          "type": "address"
        },
        {
          "indexed": true,
          "internalType": "address",
          "name": "operator",
          "type": "address"
        },
        {
          "indexed": false,
          "internalType": "bool",
          "name": "approved",
          "type": "bool"
        }
      ],
      "name": "ApprovalForAll",
      "type": "event"
    },
    {
      "anonymous": false,
      "inputs": [
        {
          "indexed": true,
          "internalType": "address",
          "name": "previousOwner",
          "type": "address"
        },
        {
          "indexed": true,
          "internalType": "address",
          "name": "newOwner",
          "type": "address"
        }
      ],
      "name": "OwnershipTransferred",
      "type": "event"
    },
    {
      "anonymous": false,
      "inputs": [
        {
          "indexed": true,
          "internalType": "uint256",
          "name": "tokenId",
          "type": "uint256"
        },
        {
          "indexed": false,
          "internalType": "string",
          "name": "title",
          "type": "string"
        },
        {
          "indexed": false,
          "internalType": "string",
          "name": "artist",
          "type": "string"
        }
      ],
      "name": "SongNFTMinted",
      "type": "event"
    },
    {
      "anonymous": false,
      "inputs": [
        {
          "indexed": true,
          "internalType": "address",
          "name": "from",
          "type": "address"
        },
        {
          "indexed": true,
          "internalType": "address",
          "name": "to",
          "type": "address"
        },
        {
          "indexed": true,
          "internalType": "uint256",
          "name": "tokenId",
          "type": "uint256"
        }
      ],
      "name": "Transfer",
      "type": "event"
    },
    {
      "inputs": [],
      "name": "PRICE",
      "outputs": [
        {
          "internalType": "uint256",
          "name": "",
          "type": "uint256"
        }
      ],
      "stateMutability": "view",
      "type": "function"
    },
    {
      "inputs": [
        {
          "internalType": "address",
          "name": "to",
          "type": "address"
        },
        {
          "internalType": "uint256",
          "name": "tokenId",
          "type": "uint256"
        }
      ],
      "name": "approve",
      "outputs": [],
      "stateMutability": "nonpayable",
      "type": "function"
    },
    {
      "inputs": [
        {
          "internalType": "address",
          "name": "owner",
          "type": "address"
        }
      ],
      "name": "balanceOf",
      "outputs": [
        {
          "internalType": "uint256",
          "name": "",
          "type": "uint256"
        }
      ],
      "stateMutability": "view",
      "type": "function"
    },
    {
      "inputs": [
        {
          "internalType": "uint256",
          "name": "tokenId",
          "type": "uint256"
        }
      ],
      "name": "getApproved",
      "outputs": [
        {
          "internalType": "address",
          "name": "",
          "type": "address"
        }
      ],
      "stateMutability": "view",
      "type": "function"
    },
    {
      "inputs": [
        {
          "internalType": "uint256",
          "name": "tokenId",
          "type": "uint256"
        }
      ],
      "name": "getSongMetadata",
      "outputs": [
        {
          "internalType": "string",
          "name": "title",
          "type": "string"
        },
        {
          "internalType": "string",
          "name": "artist",
          "type": "string"
        },
        {
          "internalType": "string",
          "name": "ipfsHash",
          "type": "string"
        },
        {
          "internalType": "uint256",
          "name": "releaseDate",
          "type": "uint256"
        }
      ],
      "stateMutability": "view",
      "type": "function"
    },
    {
      "inputs": [
        {
          "internalType": "address",
          "name": "owner",
          "type": "address"
        },
        {
          "internalType": "address",
          "name": "operator",
          "type": "address"
        }
      ],
      "name": "isApprovedForAll",
      "outputs": [
        {
          "internalType": "bool",
          "name": "",
          "type": "bool"
        }
      ],
      "stateMutability": "view",
      "type": "function"
    },
    {
      "inputs": [
        {
          "internalType": "string",
          "name": "title",
          "type": "string"
        },
        {
          "internalType": "string",
          "name": "artist",
          "type": "string"
        },
        {
          "internalType": "string",
          "name": "ipfsHash",
          "type": "string"
        }
      ],
      "name": "mintSongNFT",
      "outputs": [
        {
          "internalType": "uint256",
          "name": "",
          "type": "uint256"
        }
      ],
      "stateMutability": "nonpayable",
      "type": "function"
    },
    {
      "inputs": [],
      "name": "name",
      "outputs": [
        {
          "internalType": "string",
          "name": "",
          "type": "string"
        }
      ],
      "stateMutability": "view",
      "type": "function"
    },
    {
      "inputs": [],
      "name": "owner",
      "outputs": [
        {
          "internalType": "address",
          "name": "",
          "type": "address"
        }
      ],
      "stateMutability": "view",
      "type": "function"
    },
    {
      "inputs": [
        {
          "internalType": "uint256",
          "name": "tokenId",
          "type": "uint256"
        }
      ],
      "name": "ownerOf",
      "outputs": [
        {
          "internalType": "address",
          "name": "",
          "type": "address"
        }
      ],
      "stateMutability": "view",
      "type": "function"
    },
    {
      "inputs": [
        {
          "internalType": "uint256",
          "name": "tokenId",
          "type": "uint256"
        }
      ],
      "name": "purchaseNFT",
      "outputs": [],
      "stateMutability": "nonpayable",
      "type": "function"
    },
    {
      "inputs": [],
      "name": "renounceOwnership",
      "outputs": [],
      "stateMutability": "nonpayable",
      "type": "function"
    },
    {
      "inputs": [
        {
          "internalType": "address",
          "name": "from",
          "type": "address"
        },
        {
          "internalType": "address",
          "name": "to",
          "type": "address"
        },
        {
          "internalType": "uint256",
          "name": "tokenId",
          "type": "uint256"
        }
      ],
      "name": "safeTransferFrom",
      "outputs": [],
      "stateMutability": "nonpayable",
      "type": "function"
    },
    {
      "inputs": [
        {
          "internalType": "address",
          "name": "from",
          "type": "address"
        },
        {
          "internalType": "address",
          "name": "to",
          "type": "address"
        },
        {
          "internalType": "uint256",
          "name": "tokenId",
          "type": "uint256"
        },
        {
          "internalType": "bytes",
          "name": "data",
          "type": "bytes"
        }
      ],
      "name": "safeTransferFrom",
      "outputs": [],
      "stateMutability": "nonpayable",
      "type": "function"
    },
    {
      "inputs": [
        {
          "internalType": "address",
          "name": "operator",
          "type": "address"
        },
        {
          "internalType": "bool",
          "name": "approved",
          "type": "bool"
        }
      ],
      "name": "setApprovalForAll",
      "outputs": [],
      "stateMutability": "nonpayable",
      "type": "function"
    },
    {
      "inputs": [
        {
          "internalType": "uint256",
          "name": "",
          "type": "uint256"
        }
      ],
      "name": "songMetadata",
      "outputs": [
        {
          "internalType": "string",
          "name": "title",
          "type": "string"
        },
        {
          "internalType": "string",
          "name": "artist",
          "type": "string"
        },
        {
          "internalType": "string",
          "name": "ipfsHash",
          "type": "string"
        },
        {
          "internalType": "uint256",
          "name": "releaseDate",
          "type": "uint256"
        }
      ],
      "stateMutability": "view",
      "type": "function"
    },
    {
      "inputs": [
        {
          "internalType": "bytes4",
          "name": "interfaceId",
          "type": "bytes4"
        }
      ],
      "name": "supportsInterface",
      "outputs": [
        {
          "internalType": "bool",
          "name": "",
          "type": "bool"
        }
      ],
      "stateMutability": "view",
      "type": "function"
    },
    {
      "inputs": [],
      "name": "symbol",
      "outputs": [
        {
          "internalType": "string",
          "name": "",
          "type": "string"
        }
      ],
      "stateMutability": "view",
      "type": "function"
    },
    {
      "inputs": [
        {
          "internalType": "uint256",
          "name": "tokenId",
          "type": "uint256"
        }
      ],
      "name": "tokenURI",
      "outputs": [
        {
          "internalType": "string",
          "name": "",
          "type": "string"
        }
      ],
      "stateMutability": "view",
      "type": "function"
    },
    {
      "inputs": [
        {
          "internalType": "address",
          "name": "from",
          "type": "address"
        },
        {
          "internalType": "address",
          "name": "to",
          "type": "address"
        },
        {
          "internalType": "uint256",
          "name": "tokenId",
          "type": "uint256"
        }
      ],
      "name": "transferFrom",
      "outputs": [],
      "stateMutability": "nonpayable",
      "type": "function"
    },
    {
      "inputs": [
        {
          "internalType": "address",
          "name": "newOwner",
          "type": "address"
        }
      ],
      "name": "transferOwnership",
      "outputs": [],
      "stateMutability": "nonpayable",
      "type": "function"
    },
    {
      "inputs": [],
      "name": "usdcToken",
      "outputs": [
        {
          "internalType": "address",
          "name": "",
          "type": "address"
        }
      ],
      "stateMutability": "view",
      "type": "function"
    }
  ],
  "bytecode": "0x60806040523480156200001157600080fd5b5060405162003b5a38038062003b5a833981810160405281019062000037919062000269565b6040518060400160405280600881526020017f4d757369634e46540000000000000000000000000000000000000000000000008152506040518060400160405280600481526020017f4d4e4654000000000000000000000000000000000000000000000000000000008152508160009081620000b4919062000515565b508060019081620000c6919062000515565b505050620000e9620000dd6200013160201b60201c565b6200013960201b60201c565b80600860006101000a81548173ffffffffffffffffffffffffffffffffffffffff021916908373ffffffffffffffffffffffffffffffffffffffff16021790555050620005fc565b600033905090565b6000600660009054906101000a900473ffffffffffffffffffffffffffffffffffffffff16905081600660006101000a81548173ffffffffffffffffffffffffffffffffffffffff021916908373ffffffffffffffffffffffffffffffffffffffff1602179055508173ffffffffffffffffffffffffffffffffffffffff168173ffffffffffffffffffffffffffffffffffffffff167f8be0079c531659141344cd1fd0a4f28419497f9722a3daafe3b4186f6b6457e060405160405180910390a35050565b600080fd5b600073ffffffffffffffffffffffffffffffffffffffff82169050919050565b6000620002318262000204565b9050919050565b620002438162000224565b81146200024f57600080fd5b50565b600081519050620002638162000238565b92915050565b600060208284031215620002825762000281620001ff565b5b6000620002928482850162000252565b91505092915050565b600081519050919050565b7f4e487b7100000000000000000000000000000000000000000000000000000000600052604160045260246000fd5b7f4e487b7100000000000000000000000000000000000000000000000000000000600052602260045260246000fd5b600060028204905060018216806200031d57607f821691505b602082108103620003335762000332620002d5565b5b50919050565b60008190508160005260206000209050919050565b60006020601f8301049050919050565b600082821b905092915050565b6000600883026200039d7fffffffffffffffffffffffffffffffffffffffffffffffffffffffffffffffff826200035e565b620003a986836200035e565b95508019841693508086168417925050509392505050565b6000819050919050565b6000819050919050565b6000620003f6620003f0620003ea84620003c1565b620003cb565b620003c1565b9050919050565b6000819050919050565b6200041283620003d5565b6200042a6200042182620003fd565b8484546200036b565b825550505050565b600090565b6200044162000432565b6200044e81848462000407565b505050565b5b8181101562000476576200046a60008262000437565b60018101905062000454565b5050565b601f821115620004c5576200048f8162000339565b6200049a846200034e565b81016020851015620004aa578190505b620004c2620004b9856200034e565b83018262000453565b50505b505050565b600082821c905092915050565b6000620004ea60001984600802620004ca565b1980831691505092915050565b6000620005058383620004d7565b9150826002028217905092915050565b62000520826200029b565b67ffffffffffffffff8111156200053c576200053b620002a6565b5b62000548825462000304565b620005558282856200047a565b600060209050601f8311600181146200058d576000841562000578578287015190505b620005848582620004f7565b865550620005f4565b601f1984166200059d8662000339565b60005b82811015620005c757848901518255600182019150602085019450602081019050620005a0565b86831015620005e75784890151620005e3601f891682620004d7565b8355505b6001600288020188555050505b505050505050565b61354e806200060c6000396000f3fe608060405234801561001057600080fd5b50600436106101425760003560e01c806370eff9b6116100b857806395d89b411161007c57806395d89b411461038f578063a22cb465146103ad578063b88d4fde146103c9578063c87b56dd146103e5578063e985e9c514610415578063f2fde38b1461044557610142565b806370eff9b6146102e3578063715018a6146103165780638d859f3e146103205780638da5cb5b1461033e578063953c594b1461035c57610142565b8063150bde031161010a578063150bde03146101ff57806323b872dd1461021b57806342842e0e1461023757806360e8baa9146102535780636352211e1461028357806370a08231146102b357610142565b806301ffc9a71461014757806306fdde0314610177578063081812fc14610195578063095ea7b3146101c557806311eac855146101e1575b600080fd5b610161600480360381019061015c91906121a4565b610461565b60405161016e91906121ec565b60405180910390f35b61017f610543565b60405161018c9190612297565b60405180910390f35b6101af60048036038101906101aa91906122ef565b6105d5565b6040516101bc919061235d565b60405180910390f35b6101df60048036038101906101da91906123a4565b61061b565b005b6101e9610732565b6040516101f6919061235d565b60405180910390f35b610219600480360381019061021491906122ef565b610758565b005b610235600480360381019061023091906123e4565b6108df565b005b610251600480360381019061024c91906123e4565b61093f565b005b61026d6004803603810190610268919061256c565b61095f565b60405161027a9190612622565b60405180910390f35b61029d600480360381019061029891906122ef565b610a53565b6040516102aa919061235d565b60405180910390f35b6102cd60048036038101906102c8919061263d565b610ad9565b6040516102da9190612622565b60405180910390f35b6102fd60048036038101906102f891906122ef565b610b90565b60405161030d949392919061266a565b60405180910390f35b61031e610de5565b005b610328610df9565b6040516103359190612622565b60405180910390f35b610346610e00565b604051610353919061235d565b60405180910390f35b610376600480360381019061037191906122ef565b610e2a565b604051610386949392919061266a565b60405180910390f35b610397610ff2565b6040516103a49190612297565b60405180910390f35b6103c760048036038101906103c291906126f0565b611084565b005b6103e360048036038101906103de91906127d1565b61109a565b005b6103ff60048036038101906103fa91906122ef565b6110fc565b60405161040c9190612297565b60405180910390f35b61042f600480360381019061042a9190612854565b611164565b60405161043c91906121ec565b60405180910390f35b61045f600480360381019061045a919061263d565b6111f8565b005b60007f80ac58cd000000000000000000000000000000000000000000000000000000007bffffffffffffffffffffffffffffffffffffffffffffffffffffffff1916827bffffffffffffffffffffffffffffffffffffffffffffffffffffffff1916148061052c57507f5b5e139f000000000000000000000000000000000000000000000000000000007bffffffffffffffffffffffffffffffffffffffffffffffffffffffff1916827bffffffffffffffffffffffffffffffffffffffffffffffffffffffff1916145b8061053c575061053b8261127b565b5b9050919050565b606060008054610552906128c3565b80601f016020809104026020016040519081016040528092919081815260200182805461057e906128c3565b80156105cb5780601f106105a0576101008083540402835291602001916105cb565b820191906000526020600020905b8154815290600101906020018083116105ae57829003601f168201915b5050505050905090565b60006105e0826112e5565b6004600083815260200190815260200160002060009054906101000a900473ffffffffffffffffffffffffffffffffffffffff169050919050565b600061062682610a53565b90508073ffffffffffffffffffffffffffffffffffffffff168373ffffffffffffffffffffffffffffffffffffffff1603610696576040517f08c379a000000000000000000000000000000000000000000000000000000000815260040161068d90612966565b60405180910390fd5b8073ffffffffffffffffffffffffffffffffffffffff166106b5611330565b73ffffffffffffffffffffffffffffffffffffffff1614806106e457506106e3816106de611330565b611164565b5b610723576040517f08c379a000000000000000000000000000000000000000000000000000000000815260040161071a906129f8565b60405180910390fd5b61072d8383611338565b505050565b600860009054906101000a900473ffffffffffffffffffffffffffffffffffffffff1681565b610761816113f1565b6107a0576040517f08c379a000000000000000000000000000000000000000000000000000000000815260040161079790612a64565b60405180910390fd5b6107a8610e00565b73ffffffffffffffffffffffffffffffffffffffff166107c782610a53565b73ffffffffffffffffffffffffffffffffffffffff161461081d576040517f08c379a000000000000000000000000000000000000000000000000000000000815260040161081490612ad0565b60405180910390fd5b600860009054906101000a900473ffffffffffffffffffffffffffffffffffffffff1673ffffffffffffffffffffffffffffffffffffffff166323b872dd33610864610e00565b620f42406040518463ffffffff1660e01b815260040161088693929190612af0565b6020604051808303816000875af11580156108a5573d6000803e3d6000fd5b505050506040513d601f19601f820116820180604052508101906108c99190612b3c565b506108dc6108d5610e00565b3383611432565b50565b6108f06108ea611330565b8261172b565b61092f576040517f08c379a000000000000000000000000000000000000000000000000000000000815260040161092690612bdb565b60405180910390fd5b61093a838383611432565b505050565b61095a8383836040518060200160405280600081525061109a565b505050565b60006109696117c0565b610973600761183e565b600061097f6007611854565b905061098b3382611862565b6040518060800160405280868152602001858152602001848152602001428152506009600083815260200190815260200160002060008201518160000190816109d49190612da7565b5060208201518160010190816109ea9190612da7565b506040820151816002019081610a009190612da7565b5060608201518160030155905050807fe68de99de8a816ec673b8bb0ee5844e670a13c20f89576b11ce327b6697c66f28686604051610a40929190612e79565b60405180910390a2809150509392505050565b600080610a5f83611a7f565b9050600073ffffffffffffffffffffffffffffffffffffffff168173ffffffffffffffffffffffffffffffffffffffff1603610ad0576040517f08c379a0000000000000000000000000000000000000000000000000000000008152600401610ac790612efc565b60405180910390fd5b80915050919050565b60008073ffffffffffffffffffffffffffffffffffffffff168273ffffffffffffffffffffffffffffffffffffffff1603610b49576040517f08c379a0000000000000000000000000000000000000000000000000000000008152600401610b4090612f8e565b60405180910390fd5b600360008373ffffffffffffffffffffffffffffffffffffffff1673ffffffffffffffffffffffffffffffffffffffff168152602001908152602001600020549050919050565b60608060606000610ba0856113f1565b610bdf576040517f08c379a0000000000000000000000000000000000000000000000000000000008152600401610bd690612a64565b60405180910390fd5b600060096000878152602001908152602001600020604051806080016040529081600082018054610c0f906128c3565b80601f0160208091040260200160405190810160405280929190818152602001828054610c3b906128c3565b8015610c885780601f10610c5d57610100808354040283529160200191610c88565b820191906000526020600020905b815481529060010190602001808311610c6b57829003601f168201915b50505050508152602001600182018054610ca1906128c3565b80601f0160208091040260200160405190810160405280929190818152602001828054610ccd906128c3565b8015610d1a5780601f10610cef57610100808354040283529160200191610d1a565b820191906000526020600020905b815481529060010190602001808311610cfd57829003601f168201915b50505050508152602001600282018054610d33906128c3565b80601f0160208091040260200160405190810160405280929190818152602001828054610d5f906128c3565b8015610dac5780601f10610d8157610100808354040283529160200191610dac565b820191906000526020600020905b815481529060010190602001808311610d8f57829003601f168201915b50505050508152602001600382015481525050905080600001518160200151826040015183606001519450945094509450509193509193565b610ded6117c0565b610df76000611abc565b565b620f424081565b6000600660009054906101000a900473ffffffffffffffffffffffffffffffffffffffff16905090565b6009602052806000526040600020600091509050806000018054610e4d906128c3565b80601f0160208091040260200160405190810160405280929190818152602001828054610e79906128c3565b8015610ec65780601f10610e9b57610100808354040283529160200191610ec6565b820191906000526020600020905b815481529060010190602001808311610ea957829003601f168201915b505050505090806001018054610edb906128c3565b80601f0160208091040260200160405190810160405280929190818152602001828054610f07906128c3565b8015610f545780601f10610f2957610100808354040283529160200191610f54565b820191906000526020600020905b815481529060010190602001808311610f3757829003601f168201915b505050505090806002018054610f69906128c3565b80601f0160208091040260200160405190810160405280929190818152602001828054610f95906128c3565b8015610fe25780601f10610fb757610100808354040283529160200191610fe2565b820191906000526020600020905b815481529060010190602001808311610fc557829003601f168201915b5050505050908060030154905084565b606060018054611001906128c3565b80601f016020809104026020016040519081016040528092919081815260200182805461102d906128c3565b801561107a5780601f1061104f5761010080835404028352916020019161107a565b820191906000526020600020905b81548152906001019060200180831161105d57829003601f168201915b5050505050905090565b61109661108f611330565b8383611b82565b5050565b6110ab6110a5611330565b8361172b565b6110ea576040517f08c379a00000000000000000000000000000000000000000000000000000000081526004016110e190612bdb565b60405180910390fd5b6110f684848484611cee565b50505050565b6060611107826112e5565b6000611111611d4a565b90506000815111611131576040518060200160405280600081525061115c565b8061113b84611d61565b60405160200161114c929190612fea565b6040516020818303038152906040525b915050919050565b6000600560008473ffffffffffffffffffffffffffffffffffffffff1673ffffffffffffffffffffffffffffffffffffffff16815260200190815260200160002060008373ffffffffffffffffffffffffffffffffffffffff1673ffffffffffffffffffffffffffffffffffffffff16815260200190815260200160002060009054906101000a900460ff16905092915050565b6112006117c0565b600073ffffffffffffffffffffffffffffffffffffffff168173ffffffffffffffffffffffffffffffffffffffff160361126f576040517f08c379a000000000000000000000000000000000000000000000000000000000815260040161126690613080565b60405180910390fd5b61127881611abc565b50565b60007f01ffc9a7000000000000000000000000000000000000000000000000000000007bffffffffffffffffffffffffffffffffffffffffffffffffffffffff1916827bffffffffffffffffffffffffffffffffffffffffffffffffffffffff1916149050919050565b6112ee816113f1565b61132d576040517f08c379a000000000000000000000000000000000000000000000000000000000815260040161132490612efc565b60405180910390fd5b50565b600033905090565b816004600083815260200190815260200160002060006101000a81548173ffffffffffffffffffffffffffffffffffffffff021916908373ffffffffffffffffffffffffffffffffffffffff160217905550808273ffffffffffffffffffffffffffffffffffffffff166113ab83610a53565b73ffffffffffffffffffffffffffffffffffffffff167f8c5be1e5ebec7d5bd14f71427d1e84f3dd0314c0f7b2291e5b200ac8c7c3b92560405160405180910390a45050565b60008073ffffffffffffffffffffffffffffffffffffffff1661141383611a7f565b73ffffffffffffffffffffffffffffffffffffffff1614159050919050565b8273ffffffffffffffffffffffffffffffffffffffff1661145282610a53565b73ffffffffffffffffffffffffffffffffffffffff16146114a8576040517f08c379a000000000000000000000000000000000000000000000000000000000815260040161149f90613112565b60405180910390fd5b600073ffffffffffffffffffffffffffffffffffffffff168273ffffffffffffffffffffffffffffffffffffffff1603611517576040517f08c379a000000000000000000000000000000000000000000000000000000000815260040161150e906131a4565b60405180910390fd5b6115248383836001611e2f565b8273ffffffffffffffffffffffffffffffffffffffff1661154482610a53565b73ffffffffffffffffffffffffffffffffffffffff161461159a576040517f08c379a000000000000000000000000000000000000000000000000000000000815260040161159190613112565b60405180910390fd5b6004600082815260200190815260200160002060006101000a81549073ffffffffffffffffffffffffffffffffffffffff02191690556001600360008573ffffffffffffffffffffffffffffffffffffffff1673ffffffffffffffffffffffffffffffffffffffff168152602001908152602001600020600082825403925050819055506001600360008473ffffffffffffffffffffffffffffffffffffffff1673ffffffffffffffffffffffffffffffffffffffff16815260200190815260200160002060008282540192505081905550816002600083815260200190815260200160002060006101000a81548173ffffffffffffffffffffffffffffffffffffffff021916908373ffffffffffffffffffffffffffffffffffffffff160217905550808273ffffffffffffffffffffffffffffffffffffffff168473ffffffffffffffffffffffffffffffffffffffff167fddf252ad1be2c89b69c2b068fc378daa952ba7f163c4a11628f55a4df523b3ef60405160405180910390a46117268383836001611e35565b505050565b60008061173783610a53565b90508073ffffffffffffffffffffffffffffffffffffffff168473ffffffffffffffffffffffffffffffffffffffff16148061177957506117788185611164565b5b806117b757508373ffffffffffffffffffffffffffffffffffffffff1661179f846105d5565b73ffffffffffffffffffffffffffffffffffffffff16145b91505092915050565b6117c8611330565b73ffffffffffffffffffffffffffffffffffffffff166117e6610e00565b73ffffffffffffffffffffffffffffffffffffffff161461183c576040517f08c379a000000000000000000000000000000000000000000000000000000000815260040161183390613210565b60405180910390fd5b565b6001816000016000828254019250508190555050565b600081600001549050919050565b600073ffffffffffffffffffffffffffffffffffffffff168273ffffffffffffffffffffffffffffffffffffffff16036118d1576040517f08c379a00000000000000000000000000000000000000000000000000000000081526004016118c89061327c565b60405180910390fd5b6118da816113f1565b1561191a576040517f08c379a0000000000000000000000000000000000000000000000000000000008152600401611911906132e8565b60405180910390fd5b611928600083836001611e2f565b611931816113f1565b15611971576040517f08c379a0000000000000000000000000000000000000000000000000000000008152600401611968906132e8565b60405180910390fd5b6001600360008473ffffffffffffffffffffffffffffffffffffffff1673ffffffffffffffffffffffffffffffffffffffff16815260200190815260200160002060008282540192505081905550816002600083815260200190815260200160002060006101000a81548173ffffffffffffffffffffffffffffffffffffffff021916908373ffffffffffffffffffffffffffffffffffffffff160217905550808273ffffffffffffffffffffffffffffffffffffffff16600073ffffffffffffffffffffffffffffffffffffffff167fddf252ad1be2c89b69c2b068fc378daa952ba7f163c4a11628f55a4df523b3ef60405160405180910390a4611a7b600083836001611e35565b5050565b60006002600083815260200190815260200160002060009054906101000a900473ffffffffffffffffffffffffffffffffffffffff169050919050565b6000600660009054906101000a900473ffffffffffffffffffffffffffffffffffffffff16905081600660006101000a81548173ffffffffffffffffffffffffffffffffffffffff021916908373ffffffffffffffffffffffffffffffffffffffff1602179055508173ffffffffffffffffffffffffffffffffffffffff168173ffffffffffffffffffffffffffffffffffffffff167f8be0079c531659141344cd1fd0a4f28419497f9722a3daafe3b4186f6b6457e060405160405180910390a35050565b8173ffffffffffffffffffffffffffffffffffffffff168373ffffffffffffffffffffffffffffffffffffffff1603611bf0576040517f08c379a0000000000000000000000000000000000000000000000000000000008152600401611be790613354565b60405180910390fd5b80600560008573ffffffffffffffffffffffffffffffffffffffff1673ffffffffffffffffffffffffffffffffffffffff16815260200190815260200160002060008473ffffffffffffffffffffffffffffffffffffffff1673ffffffffffffffffffffffffffffffffffffffff16815260200190815260200160002060006101000a81548160ff0219169083151502179055508173ffffffffffffffffffffffffffffffffffffffff168373ffffffffffffffffffffffffffffffffffffffff167f17307eab39ab6107e8899845ad3d59bd9653f200f220920489ca2b5937696c3183604051611ce191906121ec565b60405180910390a3505050565b611cf9848484611432565b611d0584848484611e3b565b611d44576040517f08c379a0000000000000000000000000000000000000000000000000000000008152600401611d3b906133e6565b60405180910390fd5b50505050565b606060405180602001604052806000815250905090565b606060006001611d7084611fc2565b01905060008167ffffffffffffffff811115611d8f57611d8e612441565b5b6040519080825280601f01601f191660200182016040528015611dc15781602001600182028036833780820191505090505b509050600082602001820190505b600115611e24578080600190039150507f3031323334353637383961626364656600000000000000000000000000000000600a86061a8153600a8581611e1857611e17613406565b5b04945060008503611dcf575b819350505050919050565b50505050565b50505050565b6000611e5c8473ffffffffffffffffffffffffffffffffffffffff16612115565b15611fb5578373ffffffffffffffffffffffffffffffffffffffff1663150b7a02611e85611330565b8786866040518563ffffffff1660e01b8152600401611ea7949392919061348a565b6020604051808303816000875af1925050508015611ee357506040513d601f19601f82011682018060405250810190611ee091906134eb565b60015b611f65573d8060008114611f13576040519150601f19603f3d011682016040523d82523d6000602084013e611f18565b606091505b506000815103611f5d576040517f08c379a0000000000000000000000000000000000000000000000000000000008152600401611f54906133e6565b60405180910390fd5b805181602001fd5b63150b7a0260e01b7bffffffffffffffffffffffffffffffffffffffffffffffffffffffff1916817bffffffffffffffffffffffffffffffffffffffffffffffffffffffff191614915050611fba565b600190505b949350505050565b600080600090507a184f03e93ff9f4daa797ed6e38ed64bf6a1f0100000000000000008310612020577a184f03e93ff9f4daa797ed6e38ed64bf6a1f010000000000000000838161201657612015613406565b5b0492506040810190505b6d04ee2d6d415b85acef8100000000831061205d576d04ee2d6d415b85acef8100000000838161205357612052613406565b5b0492506020810190505b662386f26fc10000831061208c57662386f26fc10000838161208257612081613406565b5b0492506010810190505b6305f5e10083106120b5576305f5e10083816120ab576120aa613406565b5b0492506008810190505b61271083106120da5761271083816120d0576120cf613406565b5b0492506004810190505b606483106120fd57606483816120f3576120f2613406565b5b0492506002810190505b600a831061210c576001810190505b80915050919050565b6000808273ffffffffffffffffffffffffffffffffffffffff163b119050919050565b6000604051905090565b600080fd5b600080fd5b60007fffffffff0000000000000000000000000000000000000000000000000000000082169050919050565b6121818161214c565b811461218c57600080fd5b50565b60008135905061219e81612178565b92915050565b6000602082840312156121ba576121b9612142565b5b60006121c88482850161218f565b91505092915050565b60008115159050919050565b6121e6816121d1565b82525050565b600060208201905061220160008301846121dd565b92915050565b600081519050919050565b600082825260208201905092915050565b60005b83811015612241578082015181840152602081019050612226565b60008484015250505050565b6000601f19601f8301169050919050565b600061226982612207565b6122738185612212565b9350612283818560208601612223565b61228c8161224d565b840191505092915050565b600060208201905081810360008301526122b1818461225e565b905092915050565b6000819050919050565b6122cc816122b9565b81146122d757600080fd5b50565b6000813590506122e9816122c3565b92915050565b60006020828403121561230557612304612142565b5b6000612313848285016122da565b91505092915050565b600073ffffffffffffffffffffffffffffffffffffffff82169050919050565b60006123478261231c565b9050919050565b6123578161233c565b82525050565b6000602082019050612372600083018461234e565b92915050565b6123818161233c565b811461238c57600080fd5b50565b60008135905061239e81612378565b92915050565b600080604083850312156123bb576123ba612142565b5b60006123c98582860161238f565b92505060206123da858286016122da565b9150509250929050565b6000806000606084860312156123fd576123fc612142565b5b600061240b8682870161238f565b935050602061241c8682870161238f565b925050604061242d868287016122da565b9150509250925092565b600080fd5b600080fd5b7f4e487b7100000000000000000000000000000000000000000000000000000000600052604160045260246000fd5b6124798261224d565b810181811067ffffffffffffffff8211171561249857612497612441565b5b80604052505050565b60006124ab612138565b90506124b78282612470565b919050565b600067ffffffffffffffff8211156124d7576124d6612441565b5b6124e08261224d565b9050602081019050919050565b82818337600083830152505050565b600061250f61250a846124bc565b6124a1565b90508281526020810184848401111561252b5761252a61243c565b5b6125368482856124ed565b509392505050565b600082601f83011261255357612552612437565b5b81356125638482602086016124fc565b91505092915050565b60008060006060848603121561258557612584612142565b5b600084013567ffffffffffffffff8111156125a3576125a2612147565b5b6125af8682870161253e565b935050602084013567ffffffffffffffff8111156125d0576125cf612147565b5b6125dc8682870161253e565b925050604084013567ffffffffffffffff8111156125fd576125fc612147565b5b6126098682870161253e565b9150509250925092565b61261c816122b9565b82525050565b60006020820190506126376000830184612613565b92915050565b60006020828403121561265357612652612142565b5b60006126618482850161238f565b91505092915050565b60006080820190508181036000830152612684818761225e565b90508181036020830152612698818661225e565b905081810360408301526126ac818561225e565b90506126bb6060830184612613565b95945050505050565b6126cd816121d1565b81146126d857600080fd5b50565b6000813590506126ea816126c4565b92915050565b6000806040838503121561270757612706612142565b5b60006127158582860161238f565b9250506020612726858286016126db565b9150509250929050565b600067ffffffffffffffff82111561274b5761274a612441565b5b6127548261224d565b9050602081019050919050565b600061277461276f84612730565b6124a1565b9050828152602081018484840111156127905761278f61243c565b5b61279b8482856124ed565b509392505050565b600082601f8301126127b8576127b7612437565b5b81356127c8848260208601612761565b91505092915050565b600080600080608085870312156127eb576127ea612142565b5b60006127f98782880161238f565b945050602061280a8782880161238f565b935050604061281b878288016122da565b925050606085013567ffffffffffffffff81111561283c5761283b612147565b5b612848878288016127a3565b91505092959194509250565b6000806040838503121561286b5761286a612142565b5b60006128798582860161238f565b925050602061288a8582860161238f565b9150509250929050565b7f4e487b7100000000000000000000000000000000000000000000000000000000600052602260045260246000fd5b600060028204905060018216806128db57607f821691505b6020821081036128ee576128ed612894565b5b50919050565b7f4552433732313a20617070726f76616c20746f2063757272656e74206f776e6560008201527f7200000000000000000000000000000000000000000000000000000000000000602082015250565b6000612950602183612212565b915061295b826128f4565b604082019050919050565b6000602082019050818103600083015261297f81612943565b9050919050565b7f4552433732313a20617070726f76652063616c6c6572206973206e6f7420746f60008201527f6b656e206f776e6572206f7220617070726f76656420666f7220616c6c000000602082015250565b60006129e2603d83612212565b91506129ed82612986565b604082019050919050565b60006020820190508181036000830152612a11816129d5565b9050919050565b7f546f6b656e20646f6573206e6f74206578697374000000000000000000000000600082015250565b6000612a4e601483612212565b9150612a5982612a18565b602082019050919050565b60006020820190508181036000830152612a7d81612a41565b9050919050565b7f4e4654206e6f7420617661696c61626c6520666f722070757263686173650000600082015250565b6000612aba601e83612212565b9150612ac582612a84565b602082019050919050565b60006020820190508181036000830152612ae981612aad565b9050919050565b6000606082019050612b05600083018661234e565b612b12602083018561234e565b612b1f6040830184612613565b949350505050565b600081519050612b36816126c4565b92915050565b600060208284031215612b5257612b51612142565b5b6000612b6084828501612b27565b91505092915050565b7f4552433732313a2063616c6c6572206973206e6f7420746f6b656e206f776e6560008201527f72206f7220617070726f76656400000000000000000000000000000000000000602082015250565b6000612bc5602d83612212565b9150612bd082612b69565b604082019050919050565b60006020820190508181036000830152612bf481612bb8565b9050919050565b60008190508160005260206000209050919050565b60006020601f8301049050919050565b600082821b905092915050565b600060088302612c5d7fffffffffffffffffffffffffffffffffffffffffffffffffffffffffffffffff82612c20565b612c678683612c20565b95508019841693508086168417925050509392505050565b6000819050919050565b6000612ca4612c9f612c9a846122b9565b612c7f565b6122b9565b9050919050565b6000819050919050565b612cbe83612c89565b612cd2612cca82612cab565b848454612c2d565b825550505050565b600090565b612ce7612cda565b612cf2818484612cb5565b505050565b5b81811015612d1657612d0b600082612cdf565b600181019050612cf8565b5050565b601f821115612d5b57612d2c81612bfb565b612d3584612c10565b81016020851015612d44578190505b612d58612d5085612c10565b830182612cf7565b50505b505050565b600082821c905092915050565b6000612d7e60001984600802612d60565b1980831691505092915050565b6000612d978383612d6d565b9150826002028217905092915050565b612db082612207565b67ffffffffffffffff811115612dc957612dc8612441565b5b612dd382546128c3565b612dde828285612d1a565b600060209050601f831160018114612e115760008415612dff578287015190505b612e098582612d8b565b865550612e71565b601f198416612e1f86612bfb565b60005b82811015612e4757848901518255600182019150602085019450602081019050612e22565b86831015612e645784890151612e60601f891682612d6d565b8355505b6001600288020188555050505b505050505050565b60006040820190508181036000830152612e93818561225e565b90508181036020830152612ea7818461225e565b90509392505050565b7f4552433732313a20696e76616c696420746f6b656e2049440000000000000000600082015250565b6000612ee6601883612212565b9150612ef182612eb0565b602082019050919050565b60006020820190508181036000830152612f1581612ed9565b9050919050565b7f4552433732313a2061646472657373207a65726f206973206e6f74206120766160008201527f6c6964206f776e65720000000000000000000000000000000000000000000000602082015250565b6000612f78602983612212565b9150612f8382612f1c565b604082019050919050565b60006020820190508181036000830152612fa781612f6b565b9050919050565b600081905092915050565b6000612fc482612207565b612fce8185612fae565b9350612fde818560208601612223565b80840191505092915050565b6000612ff68285612fb9565b91506130028284612fb9565b91508190509392505050565b7f4f776e61626c653a206e6577206f776e657220697320746865207a65726f206160008201527f6464726573730000000000000000000000000000000000000000000000000000602082015250565b600061306a602683612212565b91506130758261300e565b604082019050919050565b600060208201905081810360008301526130998161305d565b9050919050565b7f4552433732313a207472616e736665722066726f6d20696e636f72726563742060008201527f6f776e6572000000000000000000000000000000000000000000000000000000602082015250565b60006130fc602583612212565b9150613107826130a0565b604082019050919050565b6000602082019050818103600083015261312b816130ef565b9050919050565b7f4552433732313a207472616e7366657220746f20746865207a65726f2061646460008201527f7265737300000000000000000000000000000000000000000000000000000000602082015250565b600061318e602483612212565b915061319982613132565b604082019050919050565b600060208201905081810360008301526131bd81613181565b9050919050565b7f4f776e61626c653a2063616c6c6572206973206e6f7420746865206f776e6572600082015250565b60006131fa602083612212565b9150613205826131c4565b602082019050919050565b60006020820190508181036000830152613229816131ed565b9050919050565b7f4552433732313a206d696e7420746f20746865207a65726f2061646472657373600082015250565b6000613266602083612212565b915061327182613230565b602082019050919050565b6000602082019050818103600083015261329581613259565b9050919050565b7f4552433732313a20746f6b656e20616c7265616479206d696e74656400000000600082015250565b60006132d2601c83612212565b91506132dd8261329c565b602082019050919050565b60006020820190508181036000830152613301816132c5565b9050919050565b7f4552433732313a20617070726f766520746f2063616c6c657200000000000000600082015250565b600061333e601983612212565b915061334982613308565b602082019050919050565b6000602082019050818103600083015261336d81613331565b9050919050565b7f4552433732313a207472616e7366657220746f206e6f6e20455243373231526560008201527f63656976657220696d706c656d656e7465720000000000000000000000000000602082015250565b60006133d0603283612212565b91506133db82613374565b604082019050919050565b600060208201905081810360008301526133ff816133c3565b9050919050565b7f4e487b7100000000000000000000000000000000000000000000000000000000600052601260045260246000fd5b600081519050919050565b600082825260208201905092915050565b600061345c82613435565b6134668185613440565b9350613476818560208601612223565b61347f8161224d565b840191505092915050565b600060808201905061349f600083018761234e565b6134ac602083018661234e565b6134b96040830185612613565b81810360608301526134cb8184613451565b905095945050505050565b6000815190506134e581612178565b92915050565b60006020828403121561350157613500612142565b5b600061350f848285016134d6565b9150509291505056fea2646970667358221220ff4073eb39c522dfc26930e5959c124da6e0771d68f0ecbe5c922510b0a0f43164736f6c63430008130033",
  "linkReferences": {},
  "deployedLinkReferences": {}
}